{
  "contractName": "Election",
  "abi": [
    {
      "inputs": [],
      "stateMutability": "nonpayable",
      "type": "constructor"
    },
    {
      "anonymous": false,
      "inputs": [
        {
          "indexed": true,
          "internalType": "uint256",
          "name": "candidateId",
          "type": "uint256"
        }
      ],
      "name": "VotedEvent",
      "type": "event"
    },
    {
      "inputs": [
        {
          "internalType": "uint256",
          "name": "",
          "type": "uint256"
        }
      ],
      "name": "candidates",
      "outputs": [
        {
          "internalType": "uint256",
          "name": "id",
          "type": "uint256"
        },
        {
          "internalType": "string",
          "name": "name",
          "type": "string"
        },
        {
          "internalType": "uint256",
          "name": "voteCount",
          "type": "uint256"
        }
      ],
      "stateMutability": "view",
      "type": "function",
      "constant": true
    },
    {
      "inputs": [],
      "name": "candidatesCount",
      "outputs": [
        {
          "internalType": "uint256",
          "name": "",
          "type": "uint256"
        }
      ],
      "stateMutability": "view",
      "type": "function",
      "constant": true
    },
    {
      "inputs": [
        {
          "internalType": "address",
          "name": "",
          "type": "address"
        }
      ],
      "name": "voters",
      "outputs": [
        {
          "internalType": "bool",
          "name": "",
          "type": "bool"
        }
      ],
      "stateMutability": "view",
      "type": "function",
      "constant": true
    },
    {
      "inputs": [
        {
          "internalType": "uint256",
          "name": "candidateId",
          "type": "uint256"
        }
      ],
      "name": "vote",
      "outputs": [],
      "stateMutability": "nonpayable",
      "type": "function"
    },
    {
      "inputs": [
        {
          "internalType": "uint256",
          "name": "candidateId",
          "type": "uint256"
        }
      ],
      "name": "getCandidate",
      "outputs": [
        {
          "internalType": "string",
          "name": "",
          "type": "string"
        },
        {
          "internalType": "uint256",
          "name": "",
          "type": "uint256"
        }
      ],
      "stateMutability": "view",
      "type": "function",
      "constant": true
    },
    {
      "inputs": [],
      "name": "getCandidateCount",
      "outputs": [
        {
          "internalType": "uint256",
          "name": "",
          "type": "uint256"
        }
      ],
      "stateMutability": "view",
      "type": "function",
      "constant": true
    }
  ],
  "bytecode": "0x60806040523480156200001157600080fd5b50620000586040518060400160405280600c81526020017f446f6e616c64205472756d700000000000000000000000000000000000000000815250620000a460201b60201c565b6200009e6040518060400160405280600d81526020017f4b616d616c612048617272697300000000000000000000000000000000000000815250620000a460201b60201c565b620002c5565b60026000815480929190620000b99062000219565b919050555060405180606001604052806002548152602001828152602001600081525060008060025481526020019081526020016000206000820151816000015560208201518160010190805190602001906200011892919062000129565b506040820151816002015590505050565b8280546200013790620001e3565b90600052602060002090601f0160209004810192826200015b5760008555620001a7565b82601f106200017657805160ff1916838001178555620001a7565b82800160010185558215620001a7579182015b82811115620001a657825182559160200191906001019062000189565b5b509050620001b69190620001ba565b5090565b5b80821115620001d5576000816000905550600101620001bb565b5090565b6000819050919050565b60006002820490506001821680620001fc57607f821691505b6020821081141562000213576200021262000296565b5b50919050565b60006200022682620001d9565b91507fffffffffffffffffffffffffffffffffffffffffffffffffffffffffffffffff8214156200025c576200025b62000267565b5b600182019050919050565b7f4e487b7100000000000000000000000000000000000000000000000000000000600052601160045260246000fd5b7f4e487b7100000000000000000000000000000000000000000000000000000000600052602260045260246000fd5b61096f80620002d56000396000f3fe608060405234801561001057600080fd5b50600436106100625760003560e01c80630121b93f146100675780632d35a8a21461008357806330a56347146100a15780633477ee2e146100bf57806335b8e820146100f1578063a3ec138d14610122575b600080fd5b610081600480360381019061007c9190610546565b610152565b005b61008b6102e2565b6040516100989190610731565b60405180910390f35b6100a96102e8565b6040516100b69190610731565b60405180910390f35b6100d960048036038101906100d49190610546565b6102f2565b6040516100e89392919061074c565b60405180910390f35b61010b60048036038101906101069190610546565b6103a4565b6040516101199291906106a1565b60405180910390f35b61013c6004803603810190610137919061051d565b6104d3565b6040516101499190610686565b60405180910390f35b600160003373ffffffffffffffffffffffffffffffffffffffff1673ffffffffffffffffffffffffffffffffffffffff16815260200190815260200160002060009054906101000a900460ff16156101df576040517f08c379a00000000000000000000000000000000000000000000000000000000081526004016101d690610711565b60405180910390fd5b6000811180156101f157506002548111155b610230576040517f08c379a0000000000000000000000000000000000000000000000000000000008152600401610227906106d1565b60405180910390fd5b60018060003373ffffffffffffffffffffffffffffffffffffffff1673ffffffffffffffffffffffffffffffffffffffff16815260200190815260200160002060006101000a81548160ff02191690831515021790555060008082815260200190815260200160002060020160008154809291906102ad90610853565b9190505550807fe447c5464cb203c1da94b4db8588d3cbf313ce4a489122f6b88e87f465b2810e60405160405180910390a250565b60025481565b6000600254905090565b600060205280600052604060002060009150905080600001549080600101805461031b90610821565b80601f016020809104026020016040519081016040528092919081815260200182805461034790610821565b80156103945780601f1061036957610100808354040283529160200191610394565b820191906000526020600020905b81548152906001019060200180831161037757829003601f168201915b5050505050908060020154905083565b6060600080831180156103b957506002548311155b6103f8576040517f08c379a00000000000000000000000000000000000000000000000000000000081526004016103ef906106f1565b60405180910390fd5b60008060008581526020019081526020016000206040518060600160405290816000820154815260200160018201805461043190610821565b80601f016020809104026020016040519081016040528092919081815260200182805461045d90610821565b80156104aa5780601f1061047f576101008083540402835291602001916104aa565b820191906000526020600020905b81548152906001019060200180831161048d57829003601f168201915b505050505081526020016002820154815250509050806020015181604001519250925050915091565b60016020528060005260406000206000915054906101000a900460ff1681565b6000813590506105028161090b565b92915050565b60008135905061051781610922565b92915050565b60006020828403121561052f57600080fd5b600061053d848285016104f3565b91505092915050565b60006020828403121561055857600080fd5b600061056684828501610508565b91505092915050565b610578816107b8565b82525050565b60006105898261078a565b6105938185610795565b93506105a38185602086016107ee565b6105ac816108fa565b840191505092915050565b60006105c4601183610795565b91507f496e76616c69642063616e6469646174650000000000000000000000000000006000830152602082019050919050565b6000610604601483610795565b91507f496e76616c69642063616e6469646174652049440000000000000000000000006000830152602082019050919050565b6000610644601683610795565b91507f596f75206861766520616c726561647920766f746564000000000000000000006000830152602082019050919050565b610680816107e4565b82525050565b600060208201905061069b600083018461056f565b92915050565b600060408201905081810360008301526106bb818561057e565b90506106ca6020830184610677565b9392505050565b600060208201905081810360008301526106ea816105b7565b9050919050565b6000602082019050818103600083015261070a816105f7565b9050919050565b6000602082019050818103600083015261072a81610637565b9050919050565b60006020820190506107466000830184610677565b92915050565b60006060820190506107616000830186610677565b8181036020830152610773818561057e565b90506107826040830184610677565b949350505050565b600081519050919050565b600082825260208201905092915050565b60006107b1826107c4565b9050919050565b60008115159050919050565b600073ffffffffffffffffffffffffffffffffffffffff82169050919050565b6000819050919050565b60005b8381101561080c5780820151818401526020810190506107f1565b8381111561081b576000848401525b50505050565b6000600282049050600182168061083957607f821691505b6020821081141561084d5761084c6108cb565b5b50919050565b600061085e826107e4565b91507fffffffffffffffffffffffffffffffffffffffffffffffffffffffffffffffff8214156108915761089061089c565b5b600182019050919050565b7f4e487b7100000000000000000000000000000000000000000000000000000000600052601160045260246000fd5b7f4e487b7100000000000000000000000000000000000000000000000000000000600052602260045260246000fd5b6000601f19601f8301169050919050565b610914816107a6565b811461091f57600080fd5b50565b61092b816107e4565b811461093657600080fd5b5056fea2646970667358221220b56568503d4272259ce15e5678be0a00068888d2a69692ef449cc54a352a4d3d64736f6c63430008000033",
  "immutableReferences": {},
  "source": "// SPDX-License-Identifier: MIT\r\npragma solidity ^0.8.0;\r\n\r\ncontract Election {\r\n    // Candidate model\r\n    struct Candidate {\r\n        uint id;\r\n        string name;\r\n        uint voteCount;\r\n    }\r\n\r\n    // Mappings\r\n    mapping(uint => Candidate) public candidates;\r\n    mapping(address => bool) public voters;\r\n\r\n    // Candidate count\r\n    uint public candidatesCount;\r\n\r\n    // Event to notify when a vote is cast\r\n    event VotedEvent(uint indexed candidateId);\r\n\r\n    constructor() {\r\n        addCandidate(\"Donald Trump\");\r\n        addCandidate(\"Kamala Harris\");\r\n    }\r\n\r\n    // Private function to add a candidate\r\n    function addCandidate(string memory _name) private {\r\n        candidatesCount++;\r\n        candidates[candidatesCount] = Candidate(candidatesCount, _name, 0);\r\n    }\r\n\r\n    // Vote function\r\n    function vote(uint candidateId) public {\r\n        // Ensure the voter hasn't voted before\r\n        require(!voters[msg.sender], \"You have already voted\");\r\n\r\n        // Ensure the candidate is valid\r\n        require(candidateId > 0 && candidateId <= candidatesCount, \"Invalid candidate\");\r\n\r\n        // Record that this account has voted\r\n        voters[msg.sender] = true;\r\n\r\n        // Update the candidate's vote count\r\n        candidates[candidateId].voteCount++;\r\n\r\n        // Trigger the event\r\n        emit VotedEvent(candidateId);\r\n    }\r\n\r\n    // Return candidate details\r\n    function getCandidate(uint candidateId) public view returns (string memory, uint) {\r\n        require(candidateId > 0 && candidateId <= candidatesCount, \"Invalid candidate ID\");\r\n        Candidate memory candidate = candidates[candidateId];\r\n        return (candidate.name, candidate.voteCount);\r\n    }\r\n\r\n    // Return the total number of candidates\r\n    function getCandidateCount() public view returns (uint) {\r\n        return candidatesCount;\r\n    }\r\n}\r\n",
  "sourcePath": "C:\\Users\\Yousaf Khalid\\Desktop\\voting system\\contracts\\Election.sol",
  "compiler": {
    "name": "solc",
    "version": "0.8.0+commit.c7dfd78e.Emscripten.clang"
  },
  "schemaVersion": "3.4.16",
  "updatedAt": "2024-10-02T10:29:47.110Z",
  "networkType": "ethereum",
  "devdoc": {
    "kind": "dev",
    "methods": {},
    "version": 1
  },
  "userdoc": {
    "kind": "user",
    "methods": {},
    "version": 1
  }
}